:100000000C94AB000C94D3000C94D3000C942A05F0
:100010000C9454050C947E050C94D3000C94D300DE
:100020000C94D3000C94D3000C94D3000C94D30004
:100030000C94D3000C94D3000C94D3000C94D300F4
:100040000C94970E0C94D3000C94D3000C94D30012
:100050000C94D3000C94D3000C94D3000C94D300D4
:100060000C9420030C94D30000C201000100110085
:1000700011000D0000E100000A002500250022000B
:10008000009600001900390039003600127A00008D
:100090001F004600460044008070000022004D0012
:1000A0004D004A00004B00003600750075007200DC
:1000B000403800004A009C009C0099008025000008
:1000C0007200EC00EC00E900C0120000E900DA0167
:1000D000DA01D70160090000D701B603B603B30304
:1000E000B0040000B3036E076E076B072C0100001D
:1000F000DC0EC11DC11DBE1D000000002400270034
:100100002A0000000000250028002B00000000004D
:100110002300260029000404040404040404020249
:100120000202020203030303030301020408102076
:100130004080010204081020010204081020000081
:100140000007000201000003040600000000000098
:1001500000001702630911241FBECFEFD8E0DEBFF5
:10016000CDBF11E0A0E0B1E0E0E7F3E202C005900E
:100170000D92AE31B107D9F712E0AEE1B1E001C0A6
:100180001D92AE31B107E1F711E0C6E5D1E004C040
:100190002297FE010E94B211C235D107C9F70E9411
:1001A000900E0C94B6110C9400000F931F93CF93F4
:1001B000DF93689F8001699F100D789F100D1124B7
:1001C000C8010E94F100EC01009729F060E070E0A6
:1001D000A8010E94F301CE01DF91CF911F910F91F1
:1001E0000895CF93DF93BC018230910510F462E053
:1001F00070E0A0911C02B0911D02ED01E0E0F0E082
:1002000040E050E021C0888199818617970769F402
:100210008A819B81309719F09383828304C09093E5
:100220001D0280931C02FE0134C06817790738F460
:100230004115510519F08417950708F4AC01FE012A
:100240008A819B819C01E9012097E9F641155105BE
:10025000A9F1CA01861B970B049708F4BA01E0E0E4
:10026000F0E02AC08D919C91119784179507F9F4BD
:100270006417750781F412968D919C9113973097AE
:1002800019F09383828304C090931D0280931C0213
:10029000FD0132964CC0CA01861B970BFD01E80F89
:1002A000F91F6193719302978D939C9340C0FD0158
:1002B000828193819C01D9011097A1F680911A0245
:1002C00090911B02892B41F48091040190910501CA
:1002D00090931B0280931A024091060150910701EE
:1002E0004115510541F44DB75EB7809102019091DF
:1002F0000301481B590B20911A0230911B02CA01BD
:10030000821B930B8617970780F0AB014E5F5F4F00
:100310008417950750F0420F531F50931B024093D0
:100320001A02F9016193719302C0E0E0F0E0CF019D
:10033000DF91CF910895CF93DF93009709F450C0D8
:10034000EC0122971B821A82A0911C02B0911D021F
:10035000109709F140E050E0AC17BD0708F1BB83EE
:10036000AA83FE0121913191E20FF31FAE17BF075F
:1003700079F48D919C911197280F391F2E5F3F4F73
:100380003983288312968D919C9113979B838A833E
:100390004115510571F4D0931D02C0931C0220C079
:1003A00012968D919C911397AD01009711F0DC018D
:1003B000D3CFFA01D383C28321913191E20FF31F8E
:1003C000CE17DF0769F488819981280F391F2E5FC6
:1003D0003F4FFA01318320838A819B8193838283FB
:1003E000DF91CF910895DC0101C06D9341505040E1
:1003F000E0F7089581E08093270160932201109235
:1004000025011092260108959091200180912101EB
:10041000981710F080E00895E0911E01F0911F01FF
:10042000E90FF11D80819F5F909320010895089549
:10043000DF93CF930F92CDB7DEB769838091270109
:100440008823A9F0809126018032B0F480912501A3
:10045000E0912301F0912401E80FF11D6083809168
:1004600025018F5F809325018093260105C0CE0171
:10047000019661E00E9403030F90CF91DF910895F0
:100480000E941802089560912301709124018091C7
:1004900022014091260121E00E94BE021092250116
:1004A00010922601109227010895862F60911E0157
:1004B00070911F01413208F040E20E9486021092C2
:1004C00020018093210108950E945502089580E241
:1004D00090E061E070E00E94D50080931E0190934F
:1004E0001F01109220011092210180E290E061E052
:1004F00070E00E94D5008093230190932401109214
:100500002501109226010E94A2040895982F4132DD
:1005100010F040E031C0809129018823E1F781E0AB
:10052000809329018FEF80933A011092310141505D
:10053000409332014F5F990F916090932A0185EEAD
:100540008093BC00809129018130E1F380913101D9
:10055000841710F440913101A0912F01B091300126
:1005600020E030E007C0FB01E20FF31F8D91808394
:100570002F5F3F4F2417B8F3842F08951F93582FF0
:10058000122F413210F081E03CC080912901882374
:10059000E1F782E0809329018FEF80933A01109276
:1005A000310140933201A0912F01B0913001FB0144
:1005B00002C081918D938E2F861B8417D0F3852FD7
:1005C00090E0880F991F80932A0185EE8093BC00EC
:1005D000112321F0809129018230E1F380913A01C9
:1005E0008F3F11F480E00DC080913A01803211F408
:1005F00082E007C080913A01803311F084E001C0AD
:1006000083E01F910895482F613210F081E0089532
:1006100080912901843011F082E0089560933601C1
:10062000A0913301B0913401842F9C01F90102C0E3
:1006300081918D938E2F841B8617D0F380E00895CF
:100640001F920F920FB60F9211242F933F934F9347
:100650005F936F937F938F939F93AF93BF93EF932A
:10066000FF938091B90090E0887F9070803691056B
:1006700009F4E2C081369105CCF58832910509F480
:100680007BC089329105B4F48031910509F46FC0C3
:10069000813191053CF4009709F438C1089709F0BD
:1006A00040C165C08831910509F466C0809709F0A2
:1006B00038C17FC08034910509F4A3C0813491050D
:1006C00044F48033910509F47FC0C89709F029C12B
:1006D00086C08035910509F486C08835910509F4F6
:1006E00095C08834910509F01CC19EC088399105D8
:1006F00009F404C189399105ECF48837910509F4AE
:100700009BC0893791054CF48836910509F494C053
:100710008037910509F005C18FC08838910509F42B
:10072000EDC08039910509F48DC08038910509F03C
:10073000F8C088C0803B910509F4B2C0813B9105A7
:100740004CF4803A910509F491C0883A910509F07A
:10075000E8C0A6C0803C910509F4D4C0883C91054E
:1007600009F4D0C0883B910509F0DBC0B1C080918D
:100770002A018093BB00C0C0909131018091320169
:10078000981778F490913101E0912F01F0913001A8
:10079000E90FF11D80818093BB009F5F9093310131
:1007A000ABC085ED8093BC008091BC0084FDFCCF84
:1007B000B6C080E280933A0185ED8093BC008091C1
:1007C000BC0084FDFCCFABC080E380933A0185ED93
:1007D0008093BC008091BC0084FDFCCFA0C088E366
:1007E00080933A018FC0809131019091BB00E091DC
:1007F0002F01F0913001E80FF11D90838F5F8093FE
:100800003101909131018091320174C080913101A8
:100810009091BB00E0912F01F0913001E80FF11DA4
:1008200090838F5F8093310185ED8093BC00809130
:10083000BC0084FDFCCF73C083E08093290110923B
:1008400039015AC080913901803208F057C0809137
:1008500039019091BB00E0913701F0913801E80F28
:10086000F11D90838F5F8093390146C080913901DB
:10087000803248F480913901E0913701F0913801DC
:10088000E80FF11D108260913901E0912D01F09186
:100890002E01809137019091380170E0099532C0A6
:1008A00084E0809329011092350110923601E09185
:1008B0002B01F0912C01099580913601882341F498
:1008C00081E080933601E0913301F0913401108290
:1008D00090913501E0913301F0913401E90FF11D60
:1008E00080818093BB009F5F90933501909135018B
:1008F00080913601981710F485EC01C085E880934B
:10090000BC000FC085EC8093BC0009C010923A0176
:1009100085ED8093BC008091BC0084FDFCCF1092DB
:100920002901FF91EF91BF91AF919F918F917F919D
:100930006F915F914F913F912F910F900FBE0F904C
:100940001F90189510922901449A459AE9EBF0E01E
:1009500080818E7F808380818D7F808388E48093F7
:10096000B80085E48093BC0080E290E061E070E034
:100970000E94D50080932F019093300180E290E097
:1009800061E070E00E94D5008093330190933401C0
:1009900080E290E061E070E00E94D5008093370132
:1009A0009093380108951F93CF93DF93FC01A481A6
:1009B000B5812C917381272309F048C081859285E8
:1009C00001972FEF8F3F9207D9F7C385D48560E059
:1009D00031E040E050E010E0CE01212F01972FEFF1
:1009E0008F3F9207D9F78C91872311F0632B03C0B7
:1009F000832F80956823330F4F5F5F4F4830510539
:100A000059F78585968520E001972FEF8F3F920754
:100A1000D9F780917D0120917E0190E001968F733E
:100A2000907030E08217930779F0E0917D01F0E05B
:100A3000E35CFE4F608380917D0190E001968F73AF
:100A4000907080937D0102C081E0818BDF91CF9116
:100A50001F9108951F920F920FB60F9211242F939A
:100A60003F934F935F936F937F938F939F93AF9336
:100A7000BF93EF93FF9380913B0190913C010097CE
:100A800011F00E94D304FF91EF91BF91AF919F911C
:100A90008F917F916F915F914F913F912F910F9027
:100AA0000FBE0F901F9018951F920F920FB60F92C6
:100AB00011242F933F934F935F936F937F938F9363
:100AC0009F93AF93BF93EF93FF9380913B019091DE
:100AD0003C01009711F00E94D304FF91EF91BF9168
:100AE000AF919F918F917F916F915F914F913F91C6
:100AF0002F910F900FBE0F901F9018951F920F927D
:100B00000FB60F9211242F933F934F935F936F93E0
:100B10007F938F939F93AF93BF93EF93FF938091B6
:100B20003B0190913C01009711F00E94D304FF918A
:100B3000EF91BF91AF919F918F917F916F915F9155
:100B40004F913F912F910F900FBE0F901F901895CE
:100B5000CF92DF92EF92FF920F931F93CF93DF9389
:100B6000EC017A018B01188A1F861E861D861C8661
:100B70001B861A86198620E030E06901CC0CDD1C4A
:100B8000C20ED31EB601660F771F660F771FAB012B
:100B900048595F4FFA0185919591A591B4918E15B1
:100BA0009F05A007B107E9F4FB01E459FF4F8591C8
:100BB00094919A878987FB01E259FF4F859194911F
:100BC0009C878B87FB01E059FF4F859194919E870D
:100BD0008D87FB01EE58FF4F85919491988B8F87FD
:100BE00006C02F5F3F4F2C30310509F0C6CF8D85F1
:100BF0009E85892B09F44CC03A81383090F480915D
:100C0000680084608093680020916D0081E090E02E
:100C100002C0880F991F3A95E2F7282B20936D00A8
:100C20002FC03E30B0F480916800816080936800EE
:100C300040916B00232F30E02850304081E090E05D
:100C400002C0880F991F2A95E2F7482B40936B004A
:100C500017C03631A8F480916800826080936800E4
:100C600040916C00232F30E02E50304081E090E026
:100C700002C0880F991F2A95E2F7482B40936C0019
:100C80008F85988920E001972FEF8F3F9207D9F742
:100C900080913B0190913C018C179D0771F0198A5E
:100CA0009FB7F89410927D0180917D0180937E0121
:100CB000D0933C01C0933B019FBFDF91CF911F9127
:100CC0000F91FF90EF90DF90CF900895FC018091FD
:100CD0003B0190913C018E179F0779F0118A9FB7D5
:100CE000F89410927D0180917D0180937E01F093B4
:100CF0003C01E0933B019FBF06C090917E01809133
:100D00007D01981719F42FEF3FEF0FC0E0917E019E
:100D1000F0E0E35CFE4F208180917E0190E001963F
:100D20008F73907080937E0130E0C9010895FC01BB
:100D300080913B0190913C018E179F0781F0118AB1
:100D40009FB7F89410927D0180917D0180937E0180
:100D5000F0933C01E0933B019FBF80E008958091B8
:100D60007D0120917E0190E0805C9F4F821B910964
:100D700060E470E00E94671108950F931F93DC01F7
:100D80001F968D919C915097892B09F46EC080918C
:100D90003B0190913C018A179B0781F051961C9270
:100DA00051979FB7F89410927D0180917D018093B7
:100DB0007E01B0933C01A0933B019FBF1FB7F89405
:100DC0001796ED91FC911897908116968C91169735
:100DD0008095892380831F968D919C9150970596CD
:100DE00020E001972FEF8F3F9207D9F731E040E0E5
:100DF00050E070E000E0832F90E086239723179661
:100E0000ED91FC91189716962C911697892B21F04D
:100E10008081822B808304C08081209528232083B9
:100E20001F968D919C915097202F01972FEF8F3F08
:100E30009207D9F7330F4F5F5F4F48305105D9F60E
:100E40001796ED91FC911897808116969C911697B4
:100E5000892B80831FBF1F968D919C91509720E016
:100E600001972FEF8F3F9207D9F71F910F910895A8
:100E7000FF920F931F938C01F62E862F60E00E9445
:100E80006F0F8F2D61E00E948F0FD8011296FC9298
:100E900012978F2D90E0FC01E65DFE4FE4911396D2
:100EA000EC9313978A5E9E4FFC016491E62FF0E06D
:100EB000EE0FFF1FE45FFE4F8591949115969C9372
:100EC0008E9314971F910F91FF900895FF920F93A7
:100ED0001F938C01F62E862F61E00E946F0F8F2DDD
:100EE00061E00E948F0F8F2D90E0FC01E65DFE4FC8
:100EF000E491D8011696EC9316978A5E9E4FFC01FA
:100F00006491E62FF0E0EE0FFF1FEE5FFE4F85913C
:100F1000949118969C938E9317971F910F91FF9021
:100F20000895FF920F931F938C01F62E87E191E0B5
:100F3000F8019183808312861186148613861686A3
:100F40001586108A1786118AC801642F0E946607C9
:100F5000C8016F2D0E9438071F910F91FF900895CF
:100F60008F929F92AF92BF92CF92DF92EF92FF92B9
:100F70000F931F93DF93CF9300D0CDB7DEB77C01E3
:100F800049832A83660F771F86E590E0E80EF91EF5
:100F9000F701008111818AEA9FEFE80EF91E000F28
:100FA000111F80E090E005C0F701E80FF91F1082E3
:100FB000019680179107C4F38981F701E60FF71FA7
:100FC00081838A818083F701EC5AFF4F808160E042
:100FD0000E948F0F015010406701C00ED11E0F5F9D
:100FE0001F4F90E5892E912C8E0C9F1C82E5A82E18
:100FF000B12CAE0CBF1C0EC001501040F40180811A
:10100000F501608141E0F60120810E94DC0F089427
:10101000C108D108101611067CF384E590E0E80EB3
:10102000F91EF701808161E00E948F0F0F900F90F1
:10103000CF91DF911F910F91FF90EF90DF90CF90B4
:10104000BF90AF909F908F900895EF92FF920F9373
:10105000CF93DF93DC017B01BA01F7FC3DC0AA5AB4
:10106000BF4F8D919C911197A655B040E816F90697
:101070009CF54830510580F537FD2EC028303105EC
:101080005CF5E70133E0CC0FDD1F3A95E1F780E82E
:1010900090E002C0959587952A95E2F7982F9E01DA
:1010A000240F351F002331F0FD01E20FF31F80896B
:1010B000982B06C0FD01E20FF31F909580899823BD
:1010C000908B462F4F5FCA0FDB1FC60FD71FCD0176
:1010D000B70128890E94B007DF91CF910F91FF904F
:1010E000EF900895DF92EF92FF920F931F93CF93AB
:1010F000DF93EC017B0177FD22C0CA5ADF4F888164
:101100009981C655D04068177907CCF48B010E5FE2
:101110001F4F53E0000F111F5A95E1F70C0F1D1FD1
:10112000DD24D394F80111928F01CE01B7014D2D2A
:1011300020E00E94B007D394F9E0DF1699F7DF9121
:10114000CF911F910F91FF90EF90DF900895FC01D8
:10115000242F77FD0DC0EA5AFF4F80819181E6551B
:10116000F0406817790724F4CF014AE00E94B007E5
:101170000895FC01242F77FD0DC0EA5AFF4F8081AE
:101180009181E655F0406817790724F4CF014BE0D0
:101190000E94B0070895FC0177FD16C0EA5AFF4F80
:1011A00080819181E655F040681779076CF44423FB
:1011B00031F0CF014CE020E00E94B0070895CF014C
:1011C0004CE021E00E94B0070895CF92DF92EF92A9
:1011D000FF920F931F93CF93DF93EC016B01C05BE2
:1011E000DF4F699379934993599339832883C45581
:1011F000D040C8010197089710F008E010E0CA5AE3
:10120000DF4F19830883C655D0408E01005B1F4F06
:10121000F801808161E00E946F0FFE01EE5AFF4FDE
:10122000808161E00E946F0F74E5E72EF12CEC0ED7
:10123000FD1EF701808161E00E946F0FF701808140
:1012400061E00E948F0FF801D182C082FE0180E030
:1012500090E0108A0196319680349105D1F700E034
:1012600010E066E5C62ED12CCC0EDD1E1DC0CE01D1
:10127000B8014FE020E00E94B007CE01B80147E07E
:1012800050E00E94B908CE01B80149E020E00E9478
:10129000B007CE01B8010E947208CE01B80141E04A
:1012A0000E94CB080F5F1F4FF601808191810817C4
:1012B0001907ECF2DF91CF911F910F91FF90EF9002
:1012C000DF90CF9008950F931F9383E891E06CE037
:1012D00070E04BE050E02AE030E001E010E00E94D6
:1012E000E5088BED91E062E043E00E9491071F91D9
:1012F0000F9108950F931F9308E211E0C80162E572
:1013000070E00E94FA01C80160E070E00E944002B3
:10131000C8010E9443021F910F9108950F931F93DC
:1013200008E211E0C80163E570E00E94FA01C8011B
:101330006EEF70E00E944002C80164E070E00E941D
:101340004002C8010E9443021F910F910895CF935C
:10135000DF930E947A0988E291E062E570E046E05E
:1013600050E00E946402CDEFD1E088E291E00E945B
:101370000402899382E0C330D807B9F72091FD01B8
:1013800030E08091090290910A02281B390B80916C
:10139000000290E09595879595958795982F8827D9
:1013A000280F391F30930402209303022091FE017D
:1013B00030E080910B0290910C02281B390B809138
:1013C000010290E09595879595958795982F8827A8
:1013D000280F391F30930602209305022091FF0148
:1013E00030E080910D0290910E02281B390B809104
:1013F000020290E09595879595958795982F882777
:10140000280F391F3093080220930702DF91CF91F4
:10141000089580910A01882339F10E94A7098091DB
:10142000FB019091FC018330910534F481309105EA
:101430006CF4892B31F008958530910564F005979F
:10144000B9F4809103029091040209C080910702CF
:101450009091080204C08091050290910602909339
:10146000100280930F0208951092100210920F0242
:1014700008950F931F93CF93DF9300E010E00E9435
:101480007A0988E291E062E570E046E050E00E946F
:101490006402CDEFD1E088E291E00E9404028993DA
:1014A00082E0C330D807B9F78091000290E09595AB
:1014B000879595958795982F88272091FD01820F14
:1014C000911D6AE070E00E9467118091090290917D
:1014D0000A02860F971F90930A0280930902809157
:1014E000010290E09595879595958795982F882787
:1014F0002091FE01820F911D6AE070E00E94671149
:1015000080910B0290910C02860F971F90930C0212
:1015100080930B028091020290E0959587959595B6
:101520008795982F88272091FF01820F911D6AE0EF
:1015300070E00E94671180910D0290910E02860F5B
:10154000971F90930E0280930D020F5F1F4F0A307A
:10155000110509F094CFDF91CF911F910F9108955C
:101560002091F7013091F8018091F9019091FA01F1
:101570002817390759F50E94DF0E20917F0130911D
:1015800080014091810150918201621B730B840B99
:10159000950B2091100130911101442737FD4095A2
:1015A000542F261737074807590740F580910A013D
:1015B000882321F58091F9019091FA019093FC0123
:1015C0008093FB0181E080930A01089580910A01D4
:1015D000882311F010920A010E94DF0E60937F01B0
:1015E0007093800180938101909382018091F90131
:1015F0009091FA019093F8018093F70108950E9469
:10160000DF0E6093ED017093EE018093EF019093F4
:10161000F0018BED91E060910D010E9454108BED73
:1016200091E060E071E00E945C1040910B015091EC
:101630000C01662757FD6095762F8BED91E02AE02F
:1016400030E00E9452118BED91E060E071E00E9469
:101650005C104091080150910901662757FD609583
:10166000762F8BED91E02AE030E00E9452118BED55
:1016700091E060E071E00E945C1080910A01882393
:1016800029F48BED91E06FEF7FEF06C06091FB01D5
:101690007091FC018BED91E00E943A118BED91E08D
:1016A00060E071E00E945C1060910F027091100286
:1016B0008BED91E00E94421108950F931F93CF93F9
:1016C000DF9380E00E94510F9093F2018093F1012B
:1016D00082E00E94510F9093F4018093F30181E026
:1016E0000E94510FAC019093F6018093F501A091F7
:1016F000F901B091FA01A330B10509F4C3C0A430D7
:10170000B10544F4A130B10571F0A230B10509F082
:10171000A7C163C0A430B10509F402C1A530B10569
:1017200009F09EC14BC1E091F101F091F20160918D
:101730000E0170910F01EB01CE0FDF1FC817D90703
:1017400054F48091F3019091F401860F971F841750
:1017500095070CF44AC1DF01A61BB70B4A175B07BC
:1017600054F48091F3019091F401861B970B481774
:1017700059070CF4AAC12091F3013091F4012A1702
:101780003B073CF4CA01861B970B281739070CF45A
:10179000A8C1C217D3073CF4CA01860F971F82174E
:1017A00093070CF4AAC1C901860F971F8E179F07D4
:1017B0003CF4CA01860F971F8E179F070CF4AAC12D
:1017C000261B370BE217F3070CF0AAC1461B570B79
:1017D000E417F5070CF0A4C15BC1E091F101F091B1
:1017E000F20160910E0170910F01EF01C61BD70B42
:1017F0008C179D0754F48091F3019091F401861B9E
:10180000970B481759070CF4F0C02091F301309161
:10181000F4012C173D073CF4CA01861B970B2817CF
:1018200039070CF45EC1EB01CE0FDF1FC217D307DF
:101830003CF4CA01860F971F821793070CF45DC111
:10184000D901A60FB71FAE17BF073CF4CA01860F18
:10185000971F8E179F070CF45DC1261B370BE217ED
:10186000F3073CF4CA01861B970BE817F9070CF441
:101870000FC1C417D5070CF053C1A417B5070CF05E
:101880004FC117C16091F3017091F401E091F10132
:10189000F091F20120910E0130910F018F01021B96
:1018A000130B6017710734F4821B930B68177907C9
:1018B0000CF49BC0E901CE0FDF1FC617D7073CF41D
:1018C000CA01820F931F861797070CF416C1D9011E
:1018D000A60FB71FAE17BF073CF4CA01820F931FB4
:1018E0008E179F070CF416C1621B730BE617F707E0
:1018F0003CF4CA01821B930BE817F9070CF4C8C02B
:10190000C417D50724F4A417B5070CF4D2C04017A8
:1019100051070CF005C1461757070CF001C1D5C09F
:10192000E091F301F091F4016091F1017091F20105
:1019300020910E0130910F018901060F171F0E171C
:101940001F0734F4820F931F8E179F070CF44DC0AE
:10195000E901CE0FDF1FC617D7073CF4CA01820F7B
:10196000931F861797070CF4D5C0DF01A21BB30B9A
:101970006A177B073CF4CA01821B930B681779072F
:101980000CF486C00417150724F4C417D5070CF40B
:1019900090C0CB01821B930B4817590724F44A17B8
:1019A0005B070CF492C0E817F9070CF0B9C0421BB2
:1019B000530BE417F5070CF0B3C093C06091F1012D
:1019C0007091F201E091F301F091F40120910E0188
:1019D00030910F0189010E0F1F1F0617170754F4CE
:1019E000820F931F861797072CF4B093FA01A093E8
:1019F000F90196C0DF01A21BB30B6A177B073CF409
:101A0000CA01821B930B681779070CF441C0E901E6
:101A1000C60FD71FC417D50724F4041715070CF4F5
:101A200048C0CB01821B930B4817590724F44A176F
:101A30005B070CF44AC0E817F9073CF4CA01821BA3
:101A4000930BE817F9070CF44CC0CE17DF070CF026
:101A500067C0240F351F2E173F070CF061C04DC023
:101A6000E091F101F091F2016091F3017091F401C4
:101A700020910E0130910F01DB01A21BB30BEA177D
:101A8000FB075CF4CA01821B930BE817F9072CF4DF
:101A90001092FA011092F90143C0E901CE0FDF1F45
:101AA000C417D5074CF4C901860F971F84179507F3
:101AB0001CF481E090E030C0CF01821B930B4817EB
:101AC000590734F44A175B071CF482E090E024C005
:101AD000681779074CF4CA01821B930B68177907C2
:101AE0001CF483E090E018C0C617D7074CF4CA0175
:101AF000820F931F861797071CF484E090E00CC0B8
:101B0000620F731F6E177F075CF4240F351F2E17AB
:101B10003F0734F485E090E09093FA018093F90157
:101B2000DF91CF911F910F9108958BED91E00E946D
:101B30009706823018F18BED91E00E9466062091A5
:101B40000D01332727FD309582179307B9F48BEDEC
:101B500091E00E9466069C01809108019091090124
:101B60002817390759F42230310531F40E945D0BF2
:101B70000E94B00A0E94090A0E94FF0A08950E946A
:101B80005D0B8091F9019091FA019093F801809397
:101B9000F7019093FC018093FB0108958091080167
:101BA00090910901039731F40E945D0B0E94B00AE5
:101BB0000E94090A0E94950D6AE070E080E090E0C2
:101BC0000E94ED0E08950F9383E891E060E070E0CD
:101BD00040E050E022E030E001E00E94250883E888
:101BE00091E060E070E041E050E020E030E00E94F1
:101BF00025088091080190910901029719F042E0AF
:101C000050E002C044E050E083E891E060E070E022
:101C100021E030E001E00E94250883E891E060E0E7
:101C200070E043E050E022E030E00E94250883E8C5
:101C300091E060E070E043E050E020E030E00E949E
:101C400025088091080190910901029719F044E05C
:101C500050E002C042E050E083E891E060E070E0D4
:101C600022E030E001E00E94250880910801909177
:101C70000901029719F044E050E002C042E050E050
:101C800083E891E060E070E021E030E001E00E9454
:101C9000250883E891E060E070E045E050E021E055
:101CA00030E00E94250883E891E060E070E045E0C4
:101CB00050E020E030E00E9425080F91089588E26E
:101CC00091E00E9467020E948E090E94390A68EE24
:101CD00073E080E090E00E94ED0E08950F931F9353
:101CE0008BED91E040E855E260E070E00E94A805CD
:101CF0000E94BF0D0E945F0E03E811E0C80160E082
:101D000070E040E00E94CB08C80160E070E048E06D
:101D100050E00E94A7080E94E30D1F910F910895C3
:101D20000E94170F0E946E0E0E94CE0DFDCF1F92D3
:101D30000F920FB60F9211242F933F938F939F937F
:101D4000AF93BF938091150290911602A091170254
:101D5000B0911802309119020196A11DB11D232FD7
:101D60002D5F2D3720F02D570196A11DB11D209319
:101D700019028093150290931602A0931702B09354
:101D800018028091110290911202A0911302B09159
:101D900014020196A11DB11D8093110290931202AD
:101DA000A0931302B0931402BF91AF919F918F91B2
:101DB0003F912F910F900FBE0F901F9018958FB7E6
:101DC000F89420911502309116024091170250911B
:101DD00018028FBFB901CA010895EF92FF920F93C5
:101DE0001F937B018C018FB7F8944091150250919D
:101DF000160260911702709118028FBF2FB7F894E6
:101E00008091150290911602A0911702B0911802CC
:101E10002FBF841B950BA60BB70BE816F9060A0714
:101E20001B0760F71F910F91FF90EF900895789432
:101E300084B5826084BD84B5816084BD85B58260CF
:101E400085BD85B5816085BDEEE6F0E0808181606D
:101E50008083E1E8F0E0808182608083808181601E
:101E60008083E0E8F0E0808181608083E1EBF0E056
:101E7000808184608083E0EBF0E0808181608083FA
:101E8000EAE7F0E0808184608083808182608083E3
:101E90008081816080838081806880831092C1000E
:101EA00008958F70909112019295990F990F907CDF
:101EB000982B90937C0080917A00806480937A00C4
:101EC00080917A0086FDFCCF2091780040917900C6
:101ED000942F80E030E0282B392BC9010895282F5A
:101EE00030E0C901865D9E4FFC0194912A5E3E4F11
:101EF000F9018491882391F0E82FF0E0EE0FFF1FA5
:101F0000E850FF4FA591B491662329F48C919095E8
:101F100089238C9308958C91892B8C930895482F55
:101F200050E0CA01825C9E4FFC012491CA01865D8B
:101F30009E4FFC0194914A5E5E4FFA013491332327
:101F4000D1F1222331F1233021F4809180008F7769
:101F500005C0243031F4809180008F7D8093800013
:101F600018C0213019F484B58F7704C0223021F4D1
:101F700084B58F7D84BD0DC0263021F48091B000E2
:101F80008F7705C0273029F48091B0008F7D809332
:101F9000B000E32FF0E0EE0FFF1FEE5FFE4FA591C4
:101FA000B491662329F48C91909589238C9308959C
:101FB0008C91892B8C930895BF92CF92DF92EF92F0
:101FC000FF920F931F93CF93DF93E82EF62EB42E3C
:101FD000C0E0D0E0022F10E087E0C82ED12CBB205B
:101FE00041F4B8010C2E02C0759567950A94E2F78A
:101FF0000AC0B6016C1B7D0BC80102C09595879580
:102000006A95E2F7BC0161708E2D0E948F0F8F2DB3
:1020100061E00E948F0F8F2D60E00E948F0F21964C
:10202000C830D105E1F6DF91CF911F910F91FF905C
:10203000EF90DF90CF90BF9008950F931F93CF93B1
:10204000DF938C01EB0109C02196D801ED91FC9141
:102050000190F081E02DC801099568816623A1F700
:10206000DF91CF911F910F910895EF92FF920F93FF
:102070001F93CF93DF938C017B01EA010CC0D70142
:102080006D917D01D801ED91FC910190F081E02DE1
:10209000C80109952197209791F7DF91CF911F9162
:1020A0000F91FF90EF900895DC01ED91FC9101906C
:1020B000F081E02D09950895DC01ED91FC910280FD
:1020C000F381E02D099508950F931F938C01DC0196
:1020D000ED91FC910190F081E02D6DE00995D80122
:1020E000ED91FC910190F081E02DC8016AE0099525
:1020F0001F910F9108952F923F924F925F926F928E
:102100007F928F929F92AF92BF92CF92DF92EF9287
:10211000FF920F931F93DF93CF93CDB7DEB7A097B6
:102120000FB6F894DEBF0FBECDBF1C016A017B0164
:10213000411551056105710549F4DC01ED91FC91F2
:102140000190F081E02D60E3099554C08824992422
:102150005401422E55246624772401E010E00C0F30
:102160001D1F080D191DC701B601A30192010E9490
:102170007A11F80160830894811C911CA11CB11C88
:10218000C701B601A30192010E947A11C901DA01C7
:102190006C017D01C114D104E104F104F1F681E088
:1021A000E82EF12CEC0EFD1EE80CF91C3E01089403
:1021B000611C711CD501C4010197A109B1096C0111
:1021C000C818D90814C0F601EE0DFF1D60816A30F1
:1021D00010F4605D01C0695CD101ED91FC9101904A
:1021E000F081E02DC10109950894E108F1086E1411
:1021F0007F0449F7A0960FB6F894DEBF0FBECDBF9F
:10220000CF91DF911F910F91FF90EF90DF90CF90D2
:10221000BF90AF909F908F907F906F905F904F9006
:102220003F902F900895EF92FF920F931F93CF93BB
:10223000DF93EC017A018B0177FF0FC0E881F98110
:102240000190F081E02D6DE2099510950095F094D4
:10225000E094E11CF11C011D111DCE01B801A70184
:102260002AE00E947B10DF91CF911F910F91FF9088
:10227000EF900895AB01662757FD6095762F0E9479
:10228000131108950F931F938C01AB01662757FD1F
:102290006095762F0E941311C8010E9464101F914F
:1022A0000F910895DC012115310541F4ED91FC9168
:1022B0000190F081E02D642F099508952A303105B1
:1022C00019F40E94131108950E947B10089597FB42
:1022D000092E07260AD077FD04D02ED006D0002084
:1022E0001AF4709561957F4F0895F6F79095819552
:1022F0009F4F0895A1E21A2EAA1BBB1BFD010DC022
:10230000AA1FBB1FEE1FFF1FA217B307E407F507A5
:1023100020F0A21BB30BE40BF50B661F771F881F81
:10232000991F1A9469F760957095809590959B0117
:10233000AC01BD01CF010895AA1BBB1B51E107C031
:10234000AA1FBB1FA617B70710F0A61BB70B881F45
:10235000991F5A95A9F780959095BC01CD010895D4
:10236000EE0FFF1F0590F491E02D0994F894FFCF34
:102370002C0020001E02000002000101002A320091
:0E238000E8030100000000BD061D103510002E
:00000001FF
